{
	"contracts/Xcoin.sol": {
		"Xcoin": {
			"abi": [
				{
					"inputs": [],
					"stateMutability": "nonpayable",
					"type": "constructor"
				},
				{
					"inputs": [
						{
							"internalType": "int256",
							"name": "amount",
							"type": "int256"
						}
					],
					"name": "depositBalance",
					"outputs": [],
					"stateMutability": "nonpayable",
					"type": "function"
				},
				{
					"inputs": [],
					"name": "getBalance",
					"outputs": [
						{
							"internalType": "int256",
							"name": "",
							"type": "int256"
						}
					],
					"stateMutability": "view",
					"type": "function"
				},
				{
					"inputs": [
						{
							"internalType": "int256",
							"name": "amount",
							"type": "int256"
						}
					],
					"name": "withdrawBalance",
					"outputs": [],
					"stateMutability": "nonpayable",
					"type": "function"
				}
			],
			"devdoc": {
				"kind": "dev",
				"methods": {},
				"version": 1
			},
			"evm": {
				"assembly": "    /* \"contracts/Xcoin.sol\":74:444  contract Xcoin {\r... */\n  mstore(0x40, 0x80)\n    /* \"contracts/Xcoin.sol\":116:166  constructor() public{\r... */\n  callvalue\n  dup1\n  iszero\n  tag_1\n  jumpi\n  0x00\n  dup1\n  revert\ntag_1:\n  pop\n    /* \"contracts/Xcoin.sol\":157:158  0 */\n  0x00\n    /* \"contracts/Xcoin.sol\":147:154  balance */\n  dup1\n    /* \"contracts/Xcoin.sol\":147:158  balance = 0 */\n  dup2\n  swap1\n  sstore\n  pop\n    /* \"contracts/Xcoin.sol\":74:444  contract Xcoin {\r... */\n  dataSize(sub_0)\n  dup1\n  dataOffset(sub_0)\n  0x00\n  codecopy\n  0x00\n  return\nstop\n\nsub_0: assembly {\n        /* \"contracts/Xcoin.sol\":74:444  contract Xcoin {\r... */\n      mstore(0x40, 0x80)\n      callvalue\n      dup1\n      iszero\n      tag_1\n      jumpi\n      0x00\n      dup1\n      revert\n    tag_1:\n      pop\n      jumpi(tag_2, lt(calldatasize, 0x04))\n      shr(0xe0, calldataload(0x00))\n      dup1\n      0x12065fe0\n      eq\n      tag_3\n      jumpi\n      dup1\n      0x7c52caa3\n      eq\n      tag_4\n      jumpi\n      dup1\n      0xe51ed0a0\n      eq\n      tag_5\n      jumpi\n    tag_2:\n      0x00\n      dup1\n      revert\n        /* \"contracts/Xcoin.sol\":174:255  function getBalance() view public returns (int) {\r... */\n    tag_3:\n      tag_6\n      tag_7\n      jump\t// in\n    tag_6:\n      mload(0x40)\n      tag_8\n      swap2\n      swap1\n      tag_9\n      jump\t// in\n    tag_8:\n      mload(0x40)\n      dup1\n      swap2\n      sub\n      swap1\n      return\n        /* \"contracts/Xcoin.sol\":353:441  function withdrawBalance(int amount) public{\r... */\n    tag_4:\n      tag_10\n      0x04\n      dup1\n      calldatasize\n      sub\n      dup2\n      add\n      swap1\n      tag_11\n      swap2\n      swap1\n      tag_12\n      jump\t// in\n    tag_11:\n      tag_13\n      jump\t// in\n    tag_10:\n      stop\n        /* \"contracts/Xcoin.sol\":261:347  function depositBalance (int amount) public{\r... */\n    tag_5:\n      tag_14\n      0x04\n      dup1\n      calldatasize\n      sub\n      dup2\n      add\n      swap1\n      tag_15\n      swap2\n      swap1\n      tag_12\n      jump\t// in\n    tag_15:\n      tag_16\n      jump\t// in\n    tag_14:\n      stop\n        /* \"contracts/Xcoin.sol\":174:255  function getBalance() view public returns (int) {\r... */\n    tag_7:\n        /* \"contracts/Xcoin.sol\":217:220  int */\n      0x00\n        /* \"contracts/Xcoin.sol\":240:247  balance */\n      dup1\n      sload\n        /* \"contracts/Xcoin.sol\":233:247  return balance */\n      swap1\n      pop\n        /* \"contracts/Xcoin.sol\":174:255  function getBalance() view public returns (int) {\r... */\n      swap1\n      jump\t// out\n        /* \"contracts/Xcoin.sol\":353:441  function withdrawBalance(int amount) public{\r... */\n    tag_13:\n        /* \"contracts/Xcoin.sol\":427:433  amount */\n      dup1\n        /* \"contracts/Xcoin.sol\":417:424  balance */\n      sload(0x00)\n        /* \"contracts/Xcoin.sol\":417:433  balance - amount */\n      tag_19\n      swap2\n      swap1\n      tag_20\n      jump\t// in\n    tag_19:\n        /* \"contracts/Xcoin.sol\":407:414  balance */\n      0x00\n        /* \"contracts/Xcoin.sol\":407:433  balance = balance - amount */\n      dup2\n      swap1\n      sstore\n      pop\n        /* \"contracts/Xcoin.sol\":353:441  function withdrawBalance(int amount) public{\r... */\n      pop\n      jump\t// out\n        /* \"contracts/Xcoin.sol\":261:347  function depositBalance (int amount) public{\r... */\n    tag_16:\n        /* \"contracts/Xcoin.sol\":333:339  amount */\n      dup1\n        /* \"contracts/Xcoin.sol\":325:332  balance */\n      sload(0x00)\n        /* \"contracts/Xcoin.sol\":325:339  balance+amount */\n      tag_22\n      swap2\n      swap1\n      tag_23\n      jump\t// in\n    tag_22:\n        /* \"contracts/Xcoin.sol\":315:322  balance */\n      0x00\n        /* \"contracts/Xcoin.sol\":315:339  balance = balance+amount */\n      dup2\n      swap1\n      sstore\n      pop\n        /* \"contracts/Xcoin.sol\":261:347  function depositBalance (int amount) public{\r... */\n      pop\n      jump\t// out\n        /* \"#utility.yul\":7:144   */\n    tag_25:\n        /* \"#utility.yul\":52:57   */\n      0x00\n        /* \"#utility.yul\":90:96   */\n      dup2\n        /* \"#utility.yul\":77:97   */\n      calldataload\n        /* \"#utility.yul\":68:97   */\n      swap1\n      pop\n        /* \"#utility.yul\":106:138   */\n      tag_27\n        /* \"#utility.yul\":132:137   */\n      dup2\n        /* \"#utility.yul\":106:138   */\n      tag_28\n      jump\t// in\n    tag_27:\n        /* \"#utility.yul\":7:144   */\n      swap3\n      swap2\n      pop\n      pop\n      jump\t// out\n        /* \"#utility.yul\":150:477   */\n    tag_12:\n        /* \"#utility.yul\":208:214   */\n      0x00\n        /* \"#utility.yul\":257:259   */\n      0x20\n        /* \"#utility.yul\":245:254   */\n      dup3\n        /* \"#utility.yul\":236:243   */\n      dup5\n        /* \"#utility.yul\":232:255   */\n      sub\n        /* \"#utility.yul\":228:260   */\n      slt\n        /* \"#utility.yul\":225:344   */\n      iszero\n      tag_30\n      jumpi\n        /* \"#utility.yul\":263:342   */\n      tag_31\n      tag_32\n      jump\t// in\n    tag_31:\n        /* \"#utility.yul\":225:344   */\n    tag_30:\n        /* \"#utility.yul\":383:384   */\n      0x00\n        /* \"#utility.yul\":408:460   */\n      tag_33\n        /* \"#utility.yul\":452:459   */\n      dup5\n        /* \"#utility.yul\":443:449   */\n      dup3\n        /* \"#utility.yul\":432:441   */\n      dup6\n        /* \"#utility.yul\":428:450   */\n      add\n        /* \"#utility.yul\":408:460   */\n      tag_25\n      jump\t// in\n    tag_33:\n        /* \"#utility.yul\":398:460   */\n      swap2\n      pop\n        /* \"#utility.yul\":354:470   */\n      pop\n        /* \"#utility.yul\":150:477   */\n      swap3\n      swap2\n      pop\n      pop\n      jump\t// out\n        /* \"#utility.yul\":483:598   */\n    tag_34:\n        /* \"#utility.yul\":568:591   */\n      tag_36\n        /* \"#utility.yul\":585:590   */\n      dup2\n        /* \"#utility.yul\":568:591   */\n      tag_37\n      jump\t// in\n    tag_36:\n        /* \"#utility.yul\":563:566   */\n      dup3\n        /* \"#utility.yul\":556:592   */\n      mstore\n        /* \"#utility.yul\":483:598   */\n      pop\n      pop\n      jump\t// out\n        /* \"#utility.yul\":604:822   */\n    tag_9:\n        /* \"#utility.yul\":695:699   */\n      0x00\n        /* \"#utility.yul\":733:735   */\n      0x20\n        /* \"#utility.yul\":722:731   */\n      dup3\n        /* \"#utility.yul\":718:736   */\n      add\n        /* \"#utility.yul\":710:736   */\n      swap1\n      pop\n        /* \"#utility.yul\":746:815   */\n      tag_39\n        /* \"#utility.yul\":812:813   */\n      0x00\n        /* \"#utility.yul\":801:810   */\n      dup4\n        /* \"#utility.yul\":797:814   */\n      add\n        /* \"#utility.yul\":788:794   */\n      dup5\n        /* \"#utility.yul\":746:815   */\n      tag_34\n      jump\t// in\n    tag_39:\n        /* \"#utility.yul\":604:822   */\n      swap3\n      swap2\n      pop\n      pop\n      jump\t// out\n        /* \"#utility.yul\":909:1434   */\n    tag_23:\n        /* \"#utility.yul\":948:951   */\n      0x00\n        /* \"#utility.yul\":967:986   */\n      tag_43\n        /* \"#utility.yul\":984:985   */\n      dup3\n        /* \"#utility.yul\":967:986   */\n      tag_37\n      jump\t// in\n    tag_43:\n        /* \"#utility.yul\":962:986   */\n      swap2\n      pop\n        /* \"#utility.yul\":1000:1019   */\n      tag_44\n        /* \"#utility.yul\":1017:1018   */\n      dup4\n        /* \"#utility.yul\":1000:1019   */\n      tag_37\n      jump\t// in\n    tag_44:\n        /* \"#utility.yul\":995:1019   */\n      swap3\n      pop\n        /* \"#utility.yul\":1188:1189   */\n      dup2\n        /* \"#utility.yul\":1120:1186   */\n      0x7fffffffffffffffffffffffffffffffffffffffffffffffffffffffffffffff\n        /* \"#utility.yul\":1116:1190   */\n      sub\n        /* \"#utility.yul\":1113:1114   */\n      dup4\n        /* \"#utility.yul\":1109:1191   */\n      sgt\n        /* \"#utility.yul\":1104:1105   */\n      0x00\n        /* \"#utility.yul\":1101:1102   */\n      dup4\n        /* \"#utility.yul\":1097:1106   */\n      slt\n        /* \"#utility.yul\":1090:1107   */\n      iszero\n        /* \"#utility.yul\":1086:1192   */\n      and\n        /* \"#utility.yul\":1083:1215   */\n      iszero\n      tag_45\n      jumpi\n        /* \"#utility.yul\":1195:1213   */\n      tag_46\n      tag_47\n      jump\t// in\n    tag_46:\n        /* \"#utility.yul\":1083:1215   */\n    tag_45:\n        /* \"#utility.yul\":1375:1376   */\n      dup2\n        /* \"#utility.yul\":1307:1373   */\n      0x8000000000000000000000000000000000000000000000000000000000000000\n        /* \"#utility.yul\":1303:1377   */\n      sub\n        /* \"#utility.yul\":1300:1301   */\n      dup4\n        /* \"#utility.yul\":1296:1378   */\n      slt\n        /* \"#utility.yul\":1292:1293   */\n      0x00\n        /* \"#utility.yul\":1289:1290   */\n      dup4\n        /* \"#utility.yul\":1285:1294   */\n      slt\n        /* \"#utility.yul\":1281:1379   */\n      and\n        /* \"#utility.yul\":1278:1402   */\n      iszero\n      tag_48\n      jumpi\n        /* \"#utility.yul\":1382:1400   */\n      tag_49\n      tag_47\n      jump\t// in\n    tag_49:\n        /* \"#utility.yul\":1278:1402   */\n    tag_48:\n        /* \"#utility.yul\":1426:1427   */\n      dup3\n        /* \"#utility.yul\":1423:1424   */\n      dup3\n        /* \"#utility.yul\":1419:1428   */\n      add\n        /* \"#utility.yul\":1412:1428   */\n      swap1\n      pop\n        /* \"#utility.yul\":909:1434   */\n      swap3\n      swap2\n      pop\n      pop\n      jump\t// out\n        /* \"#utility.yul\":1440:1967   */\n    tag_20:\n        /* \"#utility.yul\":1479:1483   */\n      0x00\n        /* \"#utility.yul\":1499:1518   */\n      tag_51\n        /* \"#utility.yul\":1516:1517   */\n      dup3\n        /* \"#utility.yul\":1499:1518   */\n      tag_37\n      jump\t// in\n    tag_51:\n        /* \"#utility.yul\":1494:1518   */\n      swap2\n      pop\n        /* \"#utility.yul\":1532:1551   */\n      tag_52\n        /* \"#utility.yul\":1549:1550   */\n      dup4\n        /* \"#utility.yul\":1532:1551   */\n      tag_37\n      jump\t// in\n    tag_52:\n        /* \"#utility.yul\":1527:1551   */\n      swap3\n      pop\n        /* \"#utility.yul\":1721:1722   */\n      dup3\n        /* \"#utility.yul\":1653:1719   */\n      0x8000000000000000000000000000000000000000000000000000000000000000\n        /* \"#utility.yul\":1649:1723   */\n      add\n        /* \"#utility.yul\":1646:1647   */\n      dup3\n        /* \"#utility.yul\":1642:1724   */\n      slt\n        /* \"#utility.yul\":1637:1638   */\n      0x00\n        /* \"#utility.yul\":1634:1635   */\n      dup5\n        /* \"#utility.yul\":1630:1639   */\n      slt\n        /* \"#utility.yul\":1623:1640   */\n      iszero\n        /* \"#utility.yul\":1619:1725   */\n      and\n        /* \"#utility.yul\":1616:1748   */\n      iszero\n      tag_53\n      jumpi\n        /* \"#utility.yul\":1728:1746   */\n      tag_54\n      tag_47\n      jump\t// in\n    tag_54:\n        /* \"#utility.yul\":1616:1748   */\n    tag_53:\n        /* \"#utility.yul\":1907:1908   */\n      dup3\n        /* \"#utility.yul\":1839:1905   */\n      0x7fffffffffffffffffffffffffffffffffffffffffffffffffffffffffffffff\n        /* \"#utility.yul\":1835:1909   */\n      add\n        /* \"#utility.yul\":1832:1833   */\n      dup3\n        /* \"#utility.yul\":1828:1910   */\n      sgt\n        /* \"#utility.yul\":1824:1825   */\n      0x00\n        /* \"#utility.yul\":1821:1822   */\n      dup5\n        /* \"#utility.yul\":1817:1826   */\n      slt\n        /* \"#utility.yul\":1813:1911   */\n      and\n        /* \"#utility.yul\":1810:1934   */\n      iszero\n      tag_55\n      jumpi\n        /* \"#utility.yul\":1914:1932   */\n      tag_56\n      tag_47\n      jump\t// in\n    tag_56:\n        /* \"#utility.yul\":1810:1934   */\n    tag_55:\n        /* \"#utility.yul\":1959:1960   */\n      dup3\n        /* \"#utility.yul\":1956:1957   */\n      dup3\n        /* \"#utility.yul\":1952:1961   */\n      sub\n        /* \"#utility.yul\":1944:1961   */\n      swap1\n      pop\n        /* \"#utility.yul\":1440:1967   */\n      swap3\n      swap2\n      pop\n      pop\n      jump\t// out\n        /* \"#utility.yul\":1973:2049   */\n    tag_37:\n        /* \"#utility.yul\":2009:2016   */\n      0x00\n        /* \"#utility.yul\":2038:2043   */\n      dup2\n        /* \"#utility.yul\":2027:2043   */\n      swap1\n      pop\n        /* \"#utility.yul\":1973:2049   */\n      swap2\n      swap1\n      pop\n      jump\t// out\n        /* \"#utility.yul\":2055:2235   */\n    tag_47:\n        /* \"#utility.yul\":2103:2180   */\n      0x4e487b7100000000000000000000000000000000000000000000000000000000\n        /* \"#utility.yul\":2100:2101   */\n      0x00\n        /* \"#utility.yul\":2093:2181   */\n      mstore\n        /* \"#utility.yul\":2200:2204   */\n      0x11\n        /* \"#utility.yul\":2197:2198   */\n      0x04\n        /* \"#utility.yul\":2190:2205   */\n      mstore\n        /* \"#utility.yul\":2224:2228   */\n      0x24\n        /* \"#utility.yul\":2221:2222   */\n      0x00\n        /* \"#utility.yul\":2214:2229   */\n      revert\n        /* \"#utility.yul\":2364:2481   */\n    tag_32:\n        /* \"#utility.yul\":2473:2474   */\n      0x00\n        /* \"#utility.yul\":2470:2471   */\n      dup1\n        /* \"#utility.yul\":2463:2475   */\n      revert\n        /* \"#utility.yul\":2487:2607   */\n    tag_28:\n        /* \"#utility.yul\":2559:2582   */\n      tag_63\n        /* \"#utility.yul\":2576:2581   */\n      dup2\n        /* \"#utility.yul\":2559:2582   */\n      tag_37\n      jump\t// in\n    tag_63:\n        /* \"#utility.yul\":2552:2557   */\n      dup2\n        /* \"#utility.yul\":2549:2583   */\n      eq\n        /* \"#utility.yul\":2539:2601   */\n      tag_64\n      jumpi\n        /* \"#utility.yul\":2597:2598   */\n      0x00\n        /* \"#utility.yul\":2594:2595   */\n      dup1\n        /* \"#utility.yul\":2587:2599   */\n      revert\n        /* \"#utility.yul\":2539:2601   */\n    tag_64:\n        /* \"#utility.yul\":2487:2607   */\n      pop\n      jump\t// out\n\n    auxdata: 0xa2646970667358221220f90fb2c7992940712348abf7550f4d1d197ad33bd2787cc5b0e85a977245f09764736f6c63430008070033\n}\n",
				"bytecode": {
					"linkReferences": {},
					"object": "608060405234801561001057600080fd5b50600080819055506102f2806100276000396000f3fe608060405234801561001057600080fd5b50600436106100415760003560e01c806312065fe0146100465780637c52caa314610064578063e51ed0a014610080575b600080fd5b61004e61009c565b60405161005b9190610124565b60405180910390f35b61007e600480360381019061007991906100e8565b6100a5565b005b61009a600480360381019061009591906100e8565b6100bc565b005b60008054905090565b806000546100b391906101d3565b60008190555050565b806000546100ca919061013f565b60008190555050565b6000813590506100e2816102a5565b92915050565b6000602082840312156100fe576100fd6102a0565b5b600061010c848285016100d3565b91505092915050565b61011e81610267565b82525050565b60006020820190506101396000830184610115565b92915050565b600061014a82610267565b915061015583610267565b9250817f7fffffffffffffffffffffffffffffffffffffffffffffffffffffffffffffff038313600083121516156101905761018f610271565b5b817f80000000000000000000000000000000000000000000000000000000000000000383126000831216156101c8576101c7610271565b5b828201905092915050565b60006101de82610267565b91506101e983610267565b9250827f80000000000000000000000000000000000000000000000000000000000000000182126000841215161561022457610223610271565b5b827f7fffffffffffffffffffffffffffffffffffffffffffffffffffffffffffffff01821360008412161561025c5761025b610271565b5b828203905092915050565b6000819050919050565b7f4e487b7100000000000000000000000000000000000000000000000000000000600052601160045260246000fd5b600080fd5b6102ae81610267565b81146102b957600080fd5b5056fea2646970667358221220f90fb2c7992940712348abf7550f4d1d197ad33bd2787cc5b0e85a977245f09764736f6c63430008070033",
					"opcodes": "PUSH1 0x80 PUSH1 0x40 MSTORE CALLVALUE DUP1 ISZERO PUSH2 0x10 JUMPI PUSH1 0x0 DUP1 REVERT JUMPDEST POP PUSH1 0x0 DUP1 DUP2 SWAP1 SSTORE POP PUSH2 0x2F2 DUP1 PUSH2 0x27 PUSH1 0x0 CODECOPY PUSH1 0x0 RETURN INVALID PUSH1 0x80 PUSH1 0x40 MSTORE CALLVALUE DUP1 ISZERO PUSH2 0x10 JUMPI PUSH1 0x0 DUP1 REVERT JUMPDEST POP PUSH1 0x4 CALLDATASIZE LT PUSH2 0x41 JUMPI PUSH1 0x0 CALLDATALOAD PUSH1 0xE0 SHR DUP1 PUSH4 0x12065FE0 EQ PUSH2 0x46 JUMPI DUP1 PUSH4 0x7C52CAA3 EQ PUSH2 0x64 JUMPI DUP1 PUSH4 0xE51ED0A0 EQ PUSH2 0x80 JUMPI JUMPDEST PUSH1 0x0 DUP1 REVERT JUMPDEST PUSH2 0x4E PUSH2 0x9C JUMP JUMPDEST PUSH1 0x40 MLOAD PUSH2 0x5B SWAP2 SWAP1 PUSH2 0x124 JUMP JUMPDEST PUSH1 0x40 MLOAD DUP1 SWAP2 SUB SWAP1 RETURN JUMPDEST PUSH2 0x7E PUSH1 0x4 DUP1 CALLDATASIZE SUB DUP2 ADD SWAP1 PUSH2 0x79 SWAP2 SWAP1 PUSH2 0xE8 JUMP JUMPDEST PUSH2 0xA5 JUMP JUMPDEST STOP JUMPDEST PUSH2 0x9A PUSH1 0x4 DUP1 CALLDATASIZE SUB DUP2 ADD SWAP1 PUSH2 0x95 SWAP2 SWAP1 PUSH2 0xE8 JUMP JUMPDEST PUSH2 0xBC JUMP JUMPDEST STOP JUMPDEST PUSH1 0x0 DUP1 SLOAD SWAP1 POP SWAP1 JUMP JUMPDEST DUP1 PUSH1 0x0 SLOAD PUSH2 0xB3 SWAP2 SWAP1 PUSH2 0x1D3 JUMP JUMPDEST PUSH1 0x0 DUP2 SWAP1 SSTORE POP POP JUMP JUMPDEST DUP1 PUSH1 0x0 SLOAD PUSH2 0xCA SWAP2 SWAP1 PUSH2 0x13F JUMP JUMPDEST PUSH1 0x0 DUP2 SWAP1 SSTORE POP POP JUMP JUMPDEST PUSH1 0x0 DUP2 CALLDATALOAD SWAP1 POP PUSH2 0xE2 DUP2 PUSH2 0x2A5 JUMP JUMPDEST SWAP3 SWAP2 POP POP JUMP JUMPDEST PUSH1 0x0 PUSH1 0x20 DUP3 DUP5 SUB SLT ISZERO PUSH2 0xFE JUMPI PUSH2 0xFD PUSH2 0x2A0 JUMP JUMPDEST JUMPDEST PUSH1 0x0 PUSH2 0x10C DUP5 DUP3 DUP6 ADD PUSH2 0xD3 JUMP JUMPDEST SWAP2 POP POP SWAP3 SWAP2 POP POP JUMP JUMPDEST PUSH2 0x11E DUP2 PUSH2 0x267 JUMP JUMPDEST DUP3 MSTORE POP POP JUMP JUMPDEST PUSH1 0x0 PUSH1 0x20 DUP3 ADD SWAP1 POP PUSH2 0x139 PUSH1 0x0 DUP4 ADD DUP5 PUSH2 0x115 JUMP JUMPDEST SWAP3 SWAP2 POP POP JUMP JUMPDEST PUSH1 0x0 PUSH2 0x14A DUP3 PUSH2 0x267 JUMP JUMPDEST SWAP2 POP PUSH2 0x155 DUP4 PUSH2 0x267 JUMP JUMPDEST SWAP3 POP DUP2 PUSH32 0x7FFFFFFFFFFFFFFFFFFFFFFFFFFFFFFFFFFFFFFFFFFFFFFFFFFFFFFFFFFFFFFF SUB DUP4 SGT PUSH1 0x0 DUP4 SLT ISZERO AND ISZERO PUSH2 0x190 JUMPI PUSH2 0x18F PUSH2 0x271 JUMP JUMPDEST JUMPDEST DUP2 PUSH32 0x8000000000000000000000000000000000000000000000000000000000000000 SUB DUP4 SLT PUSH1 0x0 DUP4 SLT AND ISZERO PUSH2 0x1C8 JUMPI PUSH2 0x1C7 PUSH2 0x271 JUMP JUMPDEST JUMPDEST DUP3 DUP3 ADD SWAP1 POP SWAP3 SWAP2 POP POP JUMP JUMPDEST PUSH1 0x0 PUSH2 0x1DE DUP3 PUSH2 0x267 JUMP JUMPDEST SWAP2 POP PUSH2 0x1E9 DUP4 PUSH2 0x267 JUMP JUMPDEST SWAP3 POP DUP3 PUSH32 0x8000000000000000000000000000000000000000000000000000000000000000 ADD DUP3 SLT PUSH1 0x0 DUP5 SLT ISZERO AND ISZERO PUSH2 0x224 JUMPI PUSH2 0x223 PUSH2 0x271 JUMP JUMPDEST JUMPDEST DUP3 PUSH32 0x7FFFFFFFFFFFFFFFFFFFFFFFFFFFFFFFFFFFFFFFFFFFFFFFFFFFFFFFFFFFFFFF ADD DUP3 SGT PUSH1 0x0 DUP5 SLT AND ISZERO PUSH2 0x25C JUMPI PUSH2 0x25B PUSH2 0x271 JUMP JUMPDEST JUMPDEST DUP3 DUP3 SUB SWAP1 POP SWAP3 SWAP2 POP POP JUMP JUMPDEST PUSH1 0x0 DUP2 SWAP1 POP SWAP2 SWAP1 POP JUMP JUMPDEST PUSH32 0x4E487B7100000000000000000000000000000000000000000000000000000000 PUSH1 0x0 MSTORE PUSH1 0x11 PUSH1 0x4 MSTORE PUSH1 0x24 PUSH1 0x0 REVERT JUMPDEST PUSH1 0x0 DUP1 REVERT JUMPDEST PUSH2 0x2AE DUP2 PUSH2 0x267 JUMP JUMPDEST DUP2 EQ PUSH2 0x2B9 JUMPI PUSH1 0x0 DUP1 REVERT JUMPDEST POP JUMP INVALID LOG2 PUSH5 0x6970667358 0x22 SLT KECCAK256 0xF9 0xF 0xB2 0xC7 SWAP10 0x29 BLOCKHASH PUSH18 0x2348ABF7550F4D1D197AD33BD2787CC5B0E8 GAS SWAP8 PUSH19 0x45F09764736F6C634300080700330000000000 "
				},
				"gasEstimates": {
					"creation": {
						"codeDepositCost": "150800",
						"executionCost": "5210",
						"totalCost": "156010"
					},
					"external": {
						"depositBalance(int256)": "infinite",
						"getBalance()": "2415",
						"withdrawBalance(int256)": "infinite"
					}
				},
				"methodIdentifiers": {
					"depositBalance(int256)": "e51ed0a0",
					"getBalance()": "12065fe0",
					"withdrawBalance(int256)": "7c52caa3"
				}
			},
			"storageLayout": {
				"storage": [
					{
						"astId": 3,
						"contract": "contracts/Xcoin.sol:Xcoin",
						"label": "balance",
						"offset": 0,
						"slot": "0",
						"type": "t_int256"
					}
				],
				"types": {
					"t_int256": {
						"encoding": "inplace",
						"label": "int256",
						"numberOfBytes": "32"
					}
				}
			},
			"userdoc": {
				"kind": "user",
				"methods": {},
				"version": 1
			}
		}
	}
}